:020000040800F2
:1000000000500020790E0008AD0E0008AF0E000869
:10001000B10E0008B30E0008B50E00080000000085
:10002000000000000000000000000000B70E000803
:10003000B90E000800000000BB0E0008F90500081A
:10004000C10E0008C30E0008C50E0008C70E000848
:10005000C90E0008CB0E0008CD0E0008CF0E000818
:10006000D10E0008D30E0008D50E0008D70E0008E8
:10007000D90E0008DB0E0008DD0E0008DF0E0008B8
:10008000E10E0008E30E0008E50E0008E70E000888
:10009000E90E0008EB0E0008ED0E0008EF0E000858
:1000A000F10E0008F30E0008F50E0008F70E000828
:1000B000F90E0008FB0E0008E10A0008FF0E000818
:1000C000010F0008030F0008050F0008070F0008C4
:1000D000090F0008B10600080D0F00080F0F0008F7
:1000E000110F0008130F0008150F000810B5054C7C
:1000F000237833B9044B13B10448AFF300800123D4
:10010000237010BD8C00002000000000681E000855
:1001100008B5064B1BB106480649AFF300800648F8
:10012000036813B1054B03B1984708BD00000000F8
:10013000681E0008900000208C00002000000000D5
:10014000154B002B08BF134B9D46A3F5803A0021A9
:100150008B460F461348144A121A00F0D2FF0F4B79
:10016000002B00D098470E4B002B00D09847002062
:10017000002104460D4600200C490022002300F017
:1001800059FF00F08FFF2046294600F06DFB00F07C
:100190005BFF00BF000008000050002000000000CE
:1001A000000000008C000020F40A002075100008F8
:1001B000CB782DE9F00303F00F06DB0648BF8B7800
:1001C0000A8848BF1E4312F0FF0F27D0076800239C
:1001D00001254FF00F0803E00133082B1CD00A88DB
:1001E00005FA03F42240A242F6D19C0008FA04F971
:1001F00006FA04F491F803C027EA0907BCF1280FB6
:1002000047EA040708BF4261E6D0BCF1480F08BFC7
:1002100002610133082BE2D107600A88FF2A28D93E
:100220004768002301254FF00F0803E00133082B36
:100230001ED00A8803F1080405FA04F42240A24201
:10024000F4D19C0008FA04F906FA04F491F803C00A
:1002500027EA0907BCF1280F04BF426191F803C0E7
:100260002743BCF1480F08BF02610133082BE0D1DE
:100270004760BDE8F0037047016170474161704716
:1002800010B44FF48053C4F202035A6802F00C0217
:10029000042A01D0082A28D04FF49052C0F27A02E2
:1002A00002604FF48053C4F202035C681C49C4F33B
:1002B00003140C5D22FA04F242605C68C4F3022469
:1002C0000C5D22FA04F484605C68C4F3C224095D06
:1002D00022FA01F2C2605B681249C3F38133CB5C3E
:1002E000B2FBF3F2026110BC70475A685968C2F35E
:1002F00083420232CC030AD55B68990307D44FF4DA
:100300009053C0F27A0303FB02F20260C9E74FF494
:100310001063C0F23D0303FB02F20260C1E700BFBD
:1003200004000020000000204FF48053C4F20203B8
:100330009A6919B922EA00009861704710439861E0
:10034000704700BF4FF48053C4F20203DA6919B951
:1003500022EA0000D86170471043D861704700BF9F
:1003600070B44FF430524FF45054C4F20102038879
:10037000C4F20104904218BFA0429BB214BF0022F5
:10038000012208D04FF48064C4F20004B0F1804F21
:1003900018BFA04236D14FF68F754C881D4045EAF4
:1003A00004034FF4A0564FF48055C4F20005C4F284
:1003B0000006B04218BFA8421FBFCD884FF6FF44C9
:1003C0001C4044EA050303808B8883850B880385E2
:1003D0005AB94FF488424FF48043C4F20102C4F288
:1003E0000103984218BF904205D10B7A038601237E
:1003F000838270BC70474FF49043C4F2010398426B
:10040000F5D1F2E74FF440654FF40064C4F2000503
:10041000C4F20004A04218BFA842C2D1BBE700BF8B
:1004200000234FF6FF7181800380C38043800372F5
:10043000704700BF038829B923F001031B041B0C7C
:10044000038070479BB243F001030380704700BFF5
:1004500083899BB21AB923EA01018181704719434C
:1004600081817047038A828911420CBF00200120DC
:1004700019420CBF002000F001007047C94389B247
:100480000182704770B5038ACA8823F440531B0465
:100490001B0C13430382838904468A88088923F44A
:1004A000B0530D4623F00C03498902431B040A4351
:1004B0001B0C13439BB2A381A38AAA8923F4407324
:1004C0001B041B0C86B01343A38201A8FFF7D8FEC0
:1004D0004FF46053A289C4F201039C4212B20CBFD4
:1004E000049B039B002A21DB286803EB830303EBB7
:1004F00083038000B3FBF0F148F21F53C5F2EB1306
:10050000A3FB0102A089520900B21601642500284C
:1005100002FB151213DB12013232A3FB0203C3F3F9
:10052000431333439BB2238106B070BD2A6803EBAB
:10053000830303EB83035200B3FBF2F1DCE7D20049
:100540003232A3FB0213C3F342133343EAE700BF83
:10055000838929B923F400531B041B0C8381704742
:100560009BB243F400538381704700BF01F01F0327
:1005700010B4C1F342110124A14204FA03F30DD0D7
:1005800002290DD014302AB9026822EA030303605D
:1005900010BC7047026813430360F9E70C30F2E7C0
:1005A0001030F0E78088C005C00D7047C1F34213DA
:1005B00010B401F01F020124012B04FA02F416D03A
:1005C000022B0CBF028A828A92B222400123090ABE
:1005D00003FA01F103889BB219420CBF00200120ED
:1005E000002A0CBF002000F0010010BC7047828977
:1005F00092B22240EAE700BF034B1A6812B11A68B0
:10060000013A1A60704700BFAC00002030B50420EA
:1006100087B00121FFF788FE4FF480400121FFF7EA
:1006200083FE4FF400654FF40073C4F20105ADF88A
:1006300004300323284601A98DF8063018238DF8CD
:100640000730FFF7B5FD4FF48063284601A9ADF8E8
:1006500004304FF460540423C4F201048DF80730D1
:10066000FFF7A6FD00234FF4165202A92046ADF86D
:100670000C30ADF80E30ADF81030ADF814300C235E
:10068000ADF812300292FFF7FDFE20460121FFF780
:100690005FFF0122204640F22551FFF767FF4FF42C
:1006A0006143CEF2000320225A6007B030BD00BF84
:1006B0004FF4605070B5C4F2010040F22551FFF7CD
:1006C00075FF00B970BD4FF46050C4F20100FFF730
:1006D00069FFC0B20D2818BF0A2814BF00210121EC
:1006E00013D1104D2C68002CECD00F4E0F49224630
:1006F000304600F0FDFC002333552B600C4B0121EC
:1007000019600C4B621C1A6070BD064A13685C1CB1
:10071000B3F5007F03D01460044AD05470BD0124A7
:100720000B46F8E7A80000206C080020B00000206D
:10073000B8020020B40200202DE9F0412F4C86B011
:1007400000252F4E2F4F0595A0462368012B1BDD5A
:100750003378232B0FD0542B16D129482A4905AAC8
:10076000034600F0D7FC00280EDD0128EDD1002360
:10077000C8F80030E9E700962148244903AA04ABF1
:1007800000F0C8FC012817DC002303938DB11D4C39
:1007900014F813102033013934F813201C48BDF825
:1007A0001430C9B200F0F6FA039B01339D42039363
:1007B000EEDC06B0BDE8F081022802D10023C8F8C3
:1007C0000030039B5A1E1F2A03D8049AB2F5FA7F01
:1007D00008DA2368002BD7D0094800F0C7FCC8F816
:1007E0000000B2E740F6C4118A42DFBF05F12001E4
:1007F00027F8153027F811200135EAE7B402002068
:100800006C080020700A0020C41C0008CC1C0008E2
:10081000C402002010B5012184B00420FFF792FD2E
:100820004FF4006401A8FFF7FBFDC4F20004472366
:1008300001A92046ADF804304FF4FA63ADF8083052
:10084000FFF78EFD01210A462046FFF701FE2046F4
:100850000121FFF7EFFD4FF46143CEF200034FF0AB
:1008600080421A6004B010BD2DE9F84F984A44F652
:10087000D3531168C1F26203A3FB01214EF21003AE
:100880008909CEF2000301394FF46D425960CEF26E
:100890000002F02182F823100021072299601A60DB
:1008A000FFF7B4FE8B4B4FF0010BA3F824B04FF0D1
:1008B000020BA3F840B04FF4805BA3F85CB04FF498
:1008C000005BA3F878B04FF4804BA3F894B048F2E3
:1008D000000BA3F8B0B04FF480554FF0400B4FF42D
:1008E00040614FF400674FF4A05A4FF4E05C0822D7
:1008F000C4F201011024C4F20105C4F201074FF053
:10090000800EC4F2010C4FF02008C4F2010AA3F8D3
:10091000CCB04FF4007BC3F84454C3F84814C3F878
:100920004C74C3F854A4C3F850C41D605C60D96112
:100930001A629963DA6359659A6519675A67C3F849
:100940008C10C3F89020C3F8A810C3F8AC20C3F8EB
:10095000C450C3F8C840C3F8E050C3F8E440A3F85B
:10096000E8E0C3F8FC50A3F80880C3F80041A3F8FE
:1009700020B14FF4804BA3F858B148F2000BA3F814
:1009800074B14FF4806BA3F890B14FF4006BA3F8EF
:10099000ACB14FF4805B04264FF48079A3F8C8B162
:1009A000C3F8DCA14FF4007B4FF0400AC3F81851A4
:1009B000C3F81C41C3F83471C3F83861C3F85071EF
:1009C000C3F85461C3F86C71C3F87061C3F88851FF
:1009D000C3F88C41C3F8A451C3F8A841C3F8C0516F
:1009E000C3F8C441A3F8E461C3F8F811C3F8FC21CB
:1009F000A3F80022C3F81412C3F81822A3F81C426B
:100A0000C3F83012C3F83422A3F80491A3F83C9140
:100A1000C3F8E081A3F83882C3F84C12A3F854A2BB
:100A2000C3F86812C3F88412C3F8A012A3F8A8B2DE
:100A30004FF400514FF0010A4FF0020B1846C3F873
:100A40005022C3F86C22A3F870E2C3F88822C3F8DE
:100A5000A422C3F8BC52C3F8C042A3F8C412C3F81E
:100A6000D872C3F8DC62C3F8F472C3F8F862C3F852
:100A70001073C3F81463A3F81863C3F82C73C3F896
:100A80003063A3F83423C3F848C3C3F84CE3C3F876
:100A900064C3C3F868E3A3F86C43A3F88C92A3F88B
:100AA000E0A2A3F8FCB2A3F8508300F0A9F9FFF785
:100AB000B1FE094C094D2746002630BF2368002BA4
:100AC000FBD02B68052BF8DDFFF736FE3E60F4E720
:100AD00014000020C4020020B8020020B40200204C
:100AE0002DE9F8434FF40064C4F2000420460121CC
:100AF000FFF7B8FC08B9BDE8F883DFF8DC902046C2
:100B00000121FFF7BBFC99F800700FB3DFF8C48038
:100B100007F5007207F2FF1338F8122038F8133087
:100B200008F58865D31A9BB2A385002404EB44130F
:100B3000DF1907F50B7755F8040F38F81710013453
:100B4000FFF79CFB052C234E25D099F80070EDE7AC
:100B5000204BB3F800249846A2851D4603F5936602
:100B600007EB471408EB440404F58B6434F8021FC8
:100B7000D5F84404FFF780FBB442F7D101370435C0
:100B8000052F04F14206EBD199F80030013389F8C2
:100B90000030BDE8F88399F8003044F6206103F591
:100BA000007236F812000C4A884203D001331370E9
:100BB000BDE8F883642100243046147000F008F981
:100BC000304600F0CFF8304600F046F8C6F8A445AD
:100BD000BDE8F883C4020020B002002010B54FF435
:100BE000B86304464068E3602361002363614FF407
:100BF000166323834FF4167382B001216383FFF7DA
:100C000093FB23892068ADF8043010238DF807305A
:100C100001A901238DF80630FFF7CAFA02B010BD12
:100C20000369C26830B4934213D0416981B19C1A00
:100C300024B284EAE475A5EBE475A94208D8002C37
:100C4000D4BF4FF0FF34012401FB0422C26000E056
:100C5000C36030BC704700BF2DE9F00F002482B0A4
:100C600000F59362214604EB441300EB430303F2C7
:100C7000564323F8021F9342FBD10134052C03F1A4
:100C80004202F0D14FF0000B871C5E4606F1E003F4
:100C900050F823500BF1010BEB680246A7F8FE3326
:100CA0000023D2F8444429680432A14202BF2C89AF
:100CB000F918A1F858444233B3F5A57FF1D11F2E9E
:100CC00009D10BF5007344F6206220F8132002B01E
:100CD000BDE8F00F704706F1E10850F82840EA68D7
:100CE000E368711CD31A5A1D36DB052B34DC1F292F
:100CF00034DC00EB8808C6F1200A4FF0010C0246F4
:100D000000230190D2F8441420680432884201BFC5
:100D100007EB03092189B9F85804014308BFA9F872
:100D200058144233B3F5A57FECD10CF1010CD44536
:100D3000019809D058F8044FEA68E368D31A002BE9
:100D4000B8BF5B42052BDADD0CF1FF3C664401368F
:100D500002371F2E9ADDB4E70E46F9E74FF0000C7C
:100D6000F4E700BFF0B4012707F1DF0300EB8303D2
:100D70003A465C6853F80419E668CD68AE4203D27F
:100D8000013A99605C60F4D10137202FECD1F0BCBE
:100D9000704700BFC1EBC10110B400EB810100241A
:100DA000C0F8A4450A6183B1CC68121B002AB8BF01
:100DB000524202EB8202920092FBF3F301334B6149
:100DC0000123C0F8A43510BC7047CA604B61F7E737
:100DD0001F2938B505460AD90024C4EBC40005EB29
:100DE00080000134FFF71CFF202CF6D138BDC1EB89
:100DF000C10005EB8000BDE83840FFF711BF00BF20
:100E000000222DE9F04113468046C0F8A425114682
:100E100008EB03020233422BA2F80014F8D108F5C4
:100E20005F760024C4EBC40508EB85052846013431
:100E3000FFF7D4FE202C46F8045FF3D108F560706C
:100E4000012707F1DF0350F8044F08EB83033A460C
:100E500053F80419E668CD68013AAE4203D29960AE
:100E60005C60002AF4D10137202FEAD14046BDE86A
:100E7000F041FFF7F1BE00BF0749084A084B9A420C
:100E8000BEBF51F8040B42F8040BFFF7F8BF05484A
:100E90008047054800470000741E0008000000203D
:100EA0008C000020190F000841010008FEE7FEE752
:100EB000FEE7FEE7FEE7FEE7FEE7FEE7FEE7FEE70A
:100EC000FEE7FEE7FEE7FEE7FEE7FEE7FEE7FEE7FA
:100ED000FEE7FEE7FEE7FEE7FEE7FEE7FEE7FEE7EA
:100EE000FEE7FEE7FEE7FEE7FEE7FEE7FEE7FEE7DA
:100EF000FEE7FEE7FEE7FEE7FEE7FEE7FEE7FEE7CA
:100F0000FEE7FEE7FEE7FEE7FEE7FEE7FEE7FEE7B9
:100F1000FEE7FEE7FEE700BF4FF48053C4F2020392
:100F20001968002241F0010119605968CFF6FF02EB
:100F30000A405A601A68002122F0847222F480323A
:100F40001A601A6882B022F480221A6058681A4621
:100F500020F4FE0058604FF41F009860009101914A
:100F6000196841F48031196003E0009BB3F5A06F6C
:100F700009D0136803F400330193009B01330093FD
:100F8000019B002BF1D04FF48053C4F202031B6885
:100F900013F4003308BF019301D001230193019B97
:100FA000012B08D04FF46D43CEF200034FF00062E6
:100FB0009A6002B070474FF40052C4F20202116806
:100FC0004FF4805341F0100111601168C4F2020324
:100FD00021F0030111601068194640F00200106012
:100FE0005A685A605A685A605A6842F480625A6075
:100FF0005A6822F47C125A605A6842F4E8125A6025
:101000001A6842F080721A600A684FF480539201A5
:10101000C4F20203F8D559681A4621F00301596059
:10102000596841F002015960536803F00C03082B22
:10103000FAD1B7E710B5034C14B1AFF3008010BD7F
:10104000204610BD0000000008B5084B04461BB147
:101050000021AFF3008001E000F00CF8044B1868A9
:10106000836A03B19847204600F01EFE000000008E
:10107000DC1C000870B5094B094C0025E41AA410CB
:1010800003EB840602E072599047013C043D002CBA
:10109000F9D1BDE8704000F00FBE00BF880000200D
:1010A0008C00002070B50E4B0E4D0024ED1AAD10D3
:1010B0001E4603E056F8242090470134AC42F9D193
:1010C00000F0F4FD084D094B0024ED1AAD101E464A
:1010D00003E056F8242090470134AC42F9D170BDAA
:1010E000840000208400002088000020840000206C
:1010F00010B5002302E0CC5CC45401339342FAD112
:1011000010BD8218034601E003F8011B9342FBD196
:10111000704700000EB430B59CB01FAC4FF40172A4
:1011200054F8045BADF814200290069000F01EF80D
:101130000B4B03900B9300230F9314934FF6FF7305
:10114000ADF81630074B079002A918682A462346C7
:10115000019400F06DF81CB0BDE8304003B070475A
:10116000691100087C00002000207047034613F836
:10117000012B002AFBD1181A0138704738B54B1CD7
:10118000144602D14FF0FF3533E09389CDB223F0FE
:1011900020039381536B7BB15268A36B9A4205DAAB
:1011A00023685A1E226003F8015C10E0214600F01B
:1011B000BDF90028F4D0E5E712695AB123689342DB
:1011C00008D913F8012CAA4204D1013B23606368BB
:1011D00001330DE0636823642368E36304F144038F
:1011E00063630323A363234603F8465F236001235D
:1011F0006360284638BD10B50C46496B69B104F1EF
:101200004403994201D000F02BFB236C0020606363
:10121000636013B1E36B236010BD23694FF0FF30AF
:10122000236000236360A38943F02003A38110BDE2
:101230002DE9F047ADF5247D019307460C46904615
:1012400000F00CFB00234693479303AB48939E4B5F
:10125000DFF87C92A2939D4BDFF878A2A39300E085
:10126000B04698F80050002D00F05881D9F80030B1
:101270005B195B7803F00803DBB243B91FE0479AC0
:1012800001330132479262682360013A6260636809
:10129000002B0BDD2368D9F80020197852185278FA
:1012A00002F00802D2B2002AE9D105E0A39B384639
:1012B000214698470028EDD008F10106D0E7252DFA
:1012C00008F1010656D14593439398F801302A2B33
:1012D00003D11023439308F102060A2004E0459B42
:1012E00000FB0323303B459332783346A2F13001B3
:1012F00001360929F3D9682A04D1439B43F001033D
:10130000439333461A786C2A04D1439A013342F04E
:10131000020243921A784C2A04D1439A013342F0D4
:10132000040243921E4616F8015B692D4ED012D876
:10133000642D48D00CD85B2D54D006D8002D00F079
:101340008180252D40F0838014E0632D7FD155E00E
:10135000672D7CD879E0702D2BD004D86E2D55D018
:101360006F2D74D135E0752D2DD0782D25D0732DAE
:101370006DD149E06368002B05DD23681A78AA4225
:1013800040F0CC800CE038462146A39B98470028CB
:10139000F3D000F064FA4698002840F0B980B4E039
:1013A000013362682360479B013A013362604793CF
:1013B00056E7439B43F020034393439B43F400735E
:1013C0004393102300E00A23449305E00023449351
:1013D00004E00823449303E06E2D01DC03230BE0BB
:1013E000042309E0314603A800F00CFB439B0646AA
:1013F00043F040034393012349932CE0439B43F084
:10140000400343930023F7E70223F5E7439BD80605
:101410003FF526AFD90706D5019B1A1D01921B681F
:10142000479A1A801CE713F0020F019B03F1040294
:10143000019203D01A68479B136011E7479A1B6813
:101440001A600DE700F00BFA5FE00523D4E70323F1
:1014500049930A2344936368002B04DD43AD2B6852
:101460005A061ED506E038462146A39B9847002819
:10147000F4D08EE7499B022B2EDC1EE02A69013254
:101480002A616268013A002A626002DD013323604A
:1014900007E0D5F8803138462146984700287FF488
:1014A00078AF2368D9F8002019785218527802F0E2
:1014B0000802D2B2002AE1D1DCE7384643A922462D
:1014C00001AB00F06FF81AE07D110008F711000879
:1014D0008000002000000000042B06DC384643A9F1
:1014E000224601AB00F0C6F809E0BAF1000F3FF464
:1014F000B7AE384643A9224601ABAFF300800128BE
:101500000CD002287FF4ACAE43E74FF0FF3008E088
:10151000A38903F040031BB21BB1F6E700F09FF96B
:1015200046980DF5247DBDE8F08700BF2DE9F04118
:101530000C46496B04F1440399421CD14FF480617D
:1015400000F0D0F918B94FF0FF30BDE8F0814FF44A
:101550008063A36394F84630606380F8FF3394F8A7
:10156000453080F8FE3394F8443080F8FD3300F2C3
:10157000FD30206012E0A66B77003A4600F00EFACC
:1015800005460028DFD000EB0608404629463246D3
:10159000FFF7AEFDC4F800806563A7630020BDE8D7
:1015A000F08100002DE9F84315468A6880460C4614
:1015B00032B98A69002A14BF4FF0FF3201228A60D3
:1015C0002268D20603D41A68111D19601768002614
:1015D000DFF89C9019E023680136DB0603D42B6802
:1015E0001B7807F8013B2A686B6801322A60A26801
:1015F000013B013A6B60A26032B3002B05DCD4F8EA
:101600008031404629469847F0B9A369002BE2D0C3
:10161000012B09D12A6811786269525C002ADAD15B
:1016200016B311E076B10FE0022BFBD12A681178D6
:10163000D9F800205218527802F00802D2B2002ADB
:10164000C9D0EFE7012B0FD0236813F0100305D1A9
:10165000E2680132E260A26902B13B7023690020B6
:101660009E192661BDE8F8831846BDE8F88300BFDF
:10167000800000202DE9F04F1F46744B87B00C46C8
:101680008046154693E8070006AB03E90700A36907
:101690006F4A7049032B08BF1146A36801915A1E77
:1016A000B2F5AE7F07D96FF4AE7003EB000940F2DC
:1016B0005D13A36001E04FF00009236804F11C06EC
:1016C00043F450632360B3464FF0000A2A6803A92D
:1016D00051F82A001178022200F052F9002832D085
:1016E000BAF1010F0BD162682AB92268082342F4CB
:1016F000007263602260226822F4A0620CE0BAF1FA
:10170000020F0AD1226802F4C061B1F5007F1AD13C
:101710001023636042F480722260A268511EA160AF
:101720008AB12A6812F8011B0BF8011B2A606A684B
:10173000013A002A6A6006DCD4F880214046294636
:101740009047002843D10AF1010ABAF1030FBDD135
:1017500063680BB90A23636063683F496069C91A0B
:1017600000F050F94FF0000A2DE02A686069117806
:10177000405C00282DD030290CD12168090509D5FD
:101780000AF1010AB9F1000F0BD0013309F1FF3959
:10179000A36006E0236823F41063236013780BF83A
:1017A000013B6B68013B002B6B6003DD2B68013351
:1017B0002B6005E0D4F8803140462946984740B96F
:1017C000A368013BA360A368002BCED101E04FF0DA
:1017D000000A2368D8050DD5B34509D91BF8011CAB
:1017E000D4F87C3140462A4698470BF1FF39CB4666
:1017F000B34526D0226812F010021AD18BF80020CF
:10180000636840463146019DA84722683B6812F054
:10181000200F00D006E0D10704D51A1D3A601B68DE
:10182000188003E01A1D3A601B681860E3680133F2
:10183000E3602369C6EB0B06B244534423610020E6
:1018400000E0012007B0BDE8F08F00BFE01C0008F9
:10185000651A0008751B0008FC1C000870477047DB
:1018600030B500293BD051F8042C0B1F1C49002A2D
:10187000B8BF9B180A6812B95A600B6030BD93421A
:101880000CD219685818904203D15A5889184268E6
:1018900019605A60124A136030BD0A46516809B196
:1018A0009942FAD9146815199D420AD11B68E318A8
:1018B000D0188842136012D108681B1813604B6857
:1018C0000CE002D90C23036030BD18681C188C4250
:1018D00003D10C684968001918605960536030BD25
:1018E000BC02002070B5CD1C25F0030508350C2D79
:1018F00038BF0C25002D064629DB8D4200D226E09C
:101900001E4B1B681C4612E02268521B0DD40B2A8A
:1019100002D92260A41812E0A34203D16368174AD7
:10192000136018E062685A6015E023466468002C72
:10193000EAD11AE0CC1C24F003048C4201D12560CA
:1019400009E03046611A00F04DF80130F7D10C2360
:101950003360002070BD04F10B00231D20F0070050
:10196000C31A0AD05A42E25070BD2946304600F0F0
:1019700039F8431C0146DDD1E9E770BDBC02002007
:1019800010B5C9B20346821803E0047801338C42D3
:1019900003D093421846F8D1002010BDF8B5064692
:1019A00015460C4621B91146BDE8F840FFF79ABF2D
:1019B0001AB9FFF755FF2C4612E000F05BF9A84278
:1019C0000ED230462946FFF78DFF074638B1214633
:1019D0002A46FFF78DFB30462146FFF741FF3C4684
:1019E0002046F8BD38B5064C00230546084623605E
:1019F00000F04AF9431C02D1236803B12B6038BDC3
:101A0000F00A002070B50B785E2B02D00131002463
:101A100002E04B7801240231002284540132B2F5F5
:101A2000807FFAD10BB94A1E1AE084F0010600E06B
:101A30002346C6540A46114611F8014B2D2C03D0FB
:101A40005D2C0CD064B1F3E755785D2DF0D09D424C
:101A5000EEDB02320133AB42C654FBDBEBE70A4656
:101A6000104670BD2DE9F74F01904148D0F8009025
:101A70000846044614F8015B09EB05067778204612
:101A800007F00807FFB2002FF3D12D2D03D114F872
:101A9000015B012704E02B2D04BF244614F8015BF1
:101AA000002B5ED0102B08D158E02078782801D088
:101AB00058284ED1657810230234002F0CBF6FF0E8
:101AC00000404FF00040B0FBF3FA002603FB1A0879
:101AD000304609EB050C9CF801C00CF0040B5FFAD2
:101AE0008BFBBBF1000F01D0303D0BE01CF0030C71
:101AF0001BD0BCF1010F14BF4FF0570C4FF0370C47
:101B0000CCEB05059D4210DAB6F1FF3F0AD05045F7
:101B100006D801D1454503DC03FB0050012601E056
:101B20004FF0FF3614F8015BD3E7731C0AD1002F86
:101B300001990CBF6FF000404FF0004022230B6072
:101B400022B912E007B140427AB106B1611E1160BC
:101B50000BE03025002BB0D10823AEE7302DACD1FF
:101B6000A3E7302DA1D00A23A7E7BDE8FE8F00BF71
:101B7000800000202DE9F74F01903D48D0F80090FB
:101B80000846044614F8015B09EB05067778204601
:101B900007F00807FFB2002FF3D12D2D03D114F861
:101BA000015B012704E02B2D04BF244614F8015BE0
:101BB000002B57D0102B08D151E02078782801D085
:101BC000582847D16578102302344FF0FF3ABAFB0A
:101BD000F3FA03FB0AF000266FEA0008304609EB2F
:101BE000050C9CF801C00CF0040B5FFA8BFBBBF1F9
:101BF000000F01D0303D0BE01CF0030C1BD0BCF1FA
:101C0000010F14BF4FF0570C4FF0370CCCEB05050C
:101C10009D4210DAB6F1FF3F0AD0504506D801D1F7
:101C2000454503DC03FB0050012601E04FF0FF3681
:101C300014F8015BD3E7731C05D1019922230B60D3
:101C4000304622B912E007B140427AB106B1611EB6
:101C500011600BE03025002BB7D10823B5E7302DFC
:101C6000B3D1AAE7302DA8D00A23AEE7BDE8FE8F96
:101C70008000002051F8040C002802DA04390B58C7
:101C8000C018043870470000064940F6F8220B6877
:101C9000C2F20002002B08BF13461818086018464D
:101CA000704700BFC0020020FEE700BFF8B500BFCC
:101CB000F8BC08BC9E467047F8B500BFF8BC08BC2D
:101CC0009E46704754256425730000002325645008
:101CD0002564257300000000430000001800002068
:101CE000FE1C0008011D0008041D0008412D46616E
:101CF0002D66383930313233343536375D002B2D8F
:101D000000303000785800002020202020202020A3
:101D1000202828282828202020202020202020209B
:101D200020202020202020208810101010101010BB
:101D30001010101010101010040404040404040403
:101D40000404101010101010104141414141410194
:101D50000101010101010101010101010101010173
:101D60000101011010101010104242424242420282
:101D70000202020202020202020202020202020243
:101D800002020210101010200000000000000000ED
:101D90000000000000000000000000000000000043
:101DA0000000000000000000000000000000000033
:101DB0000000000000000000000000000000000023
:101DC0000000000000000000000000000000000013
:101DD0000000000000000000000000000000000003
:101DE00000000000000000000000000000000000F3
:101DF00000000000000000000000000000000000E3
:101E000000000000000000000000000000000000D2
:101E100000000000000000000000000000000000C2
:101E200000000000000000000000000000000000B2
:101E300000000000000000000000000000000000A2
:101E40000000000000000000000000000000000092
:101E50000000000000000000000000000000000082
:0C1E600000000000000000000000000076
:081E6C00D4E2FF7F0100000039
:101E74000204060800000000010203040102030436
:101E84000607080900A24A0400000000081E000812
:101E9400281E0008481E0008000000000000000082
:101EA4000000000000000000D81C00080000000032
:101EB400000000000000000000000000000000001E
:101EC400000000000000000000000000000000000E
:101ED40000000000000000000000000000000000FE
:101EE40000000000000000000000000018000020B6
:0C1EF400071D000811010008ED000008A7
:0400000508000140AE
:00000001FF
